{
  "_format": "hh-sol-artifact-1",
  "contractName": "CoinFlip",
  "sourceName": "contracts/CoinFlip.sol",
  "abi": [
    {
      "inputs": [],
      "stateMutability": "nonpayable",
      "type": "constructor"
    },
    {
      "anonymous": false,
      "inputs": [
        {
          "indexed": true,
          "internalType": "address",
          "name": "player",
          "type": "address"
        },
        {
          "indexed": false,
          "internalType": "uint256",
          "name": "amount",
          "type": "uint256"
        },
        {
          "indexed": false,
          "internalType": "bool",
          "name": "won",
          "type": "bool"
        }
      ],
      "name": "BetPlaced",
      "type": "event"
    },
    {
      "anonymous": false,
      "inputs": [
        {
          "indexed": true,
          "internalType": "address",
          "name": "sender",
          "type": "address"
        },
        {
          "indexed": false,
          "internalType": "uint256",
          "name": "amount",
          "type": "uint256"
        }
      ],
      "name": "FundsDeposited",
      "type": "event"
    },
    {
      "anonymous": false,
      "inputs": [
        {
          "indexed": true,
          "internalType": "address",
          "name": "owner",
          "type": "address"
        },
        {
          "indexed": false,
          "internalType": "uint256",
          "name": "amount",
          "type": "uint256"
        }
      ],
      "name": "FundsWithdrawn",
      "type": "event"
    },
    {
      "inputs": [],
      "name": "owner",
      "outputs": [
        {
          "internalType": "address",
          "name": "",
          "type": "address"
        }
      ],
      "stateMutability": "view",
      "type": "function"
    },
    {
      "inputs": [
        {
          "internalType": "bool",
          "name": "guess",
          "type": "bool"
        }
      ],
      "name": "placeBet",
      "outputs": [],
      "stateMutability": "payable",
      "type": "function"
    },
    {
      "inputs": [
        {
          "internalType": "uint256",
          "name": "amount",
          "type": "uint256"
        }
      ],
      "name": "withdraw",
      "outputs": [],
      "stateMutability": "nonpayable",
      "type": "function"
    },
    {
      "stateMutability": "payable",
      "type": "receive"
    }
  ],
  "bytecode": "0x608060405234801561001057600080fd5b50336000806101000a81548173ffffffffffffffffffffffffffffffffffffffff021916908373ffffffffffffffffffffffffffffffffffffffff1602179055506108c6806100606000396000f3fe6080604052600436106100385760003560e01c8063096a3778146100925780632e1a7d4d146100ae5780638da5cb5b146100d75761008d565b3661008d573373ffffffffffffffffffffffffffffffffffffffff167f543ba50a5eec5e6178218e364b1d0f396157b3c8fa278522c2cb7fd99407d474346040516100839190610485565b60405180910390a2005b600080fd5b6100ac60048036038101906100a791906104dd565b610102565b005b3480156100ba57600080fd5b506100d560048036038101906100d09190610536565b610260565b005b3480156100e357600080fd5b506100ec610409565b6040516100f991906105a4565b60405180910390f35b60003411610145576040517f08c379a000000000000000000000000000000000000000000000000000000000815260040161013c90610642565b60405180910390fd5b6002346101529190610691565b471015610194576040517f08c379a000000000000000000000000000000000000000000000000000000000815260040161018b9061071f565b60405180910390fd5b600060016101a061042d565b60ff161490506000821515821515149050801561020b573373ffffffffffffffffffffffffffffffffffffffff166108fc6002346101de9190610691565b9081150290604051600060405180830381858888f19350505050158015610209573d6000803e3d6000fd5b505b3373ffffffffffffffffffffffffffffffffffffffff167ff8e99859e696debf4ef1752d671f759f7f63a1116efe995d789edfb3849c3549348360405161025392919061074e565b60405180910390a2505050565b60008054906101000a900473ffffffffffffffffffffffffffffffffffffffff1673ffffffffffffffffffffffffffffffffffffffff163373ffffffffffffffffffffffffffffffffffffffff16146102ee576040517f08c379a00000000000000000000000000000000000000000000000000000000081526004016102e5906107c3565b60405180910390fd5b80471015610331576040517f08c379a00000000000000000000000000000000000000000000000000000000081526004016103289061071f565b60405180910390fd5b60008054906101000a900473ffffffffffffffffffffffffffffffffffffffff1673ffffffffffffffffffffffffffffffffffffffff166108fc829081150290604051600060405180830381858888f19350505050158015610397573d6000803e3d6000fd5b5060008054906101000a900473ffffffffffffffffffffffffffffffffffffffff1673ffffffffffffffffffffffffffffffffffffffff167feaff4b37086828766ad3268786972c0cd24259d4c87a80f9d3963a3c3d999b0d826040516103fe9190610485565b60405180910390a250565b60008054906101000a900473ffffffffffffffffffffffffffffffffffffffff1681565b600060024442604051602001610444929190610804565b6040516020818303038152906040528051906020012060001c610467919061085f565b905090565b6000819050919050565b61047f8161046c565b82525050565b600060208201905061049a6000830184610476565b92915050565b600080fd5b60008115159050919050565b6104ba816104a5565b81146104c557600080fd5b50565b6000813590506104d7816104b1565b92915050565b6000602082840312156104f3576104f26104a0565b5b6000610501848285016104c8565b91505092915050565b6105138161046c565b811461051e57600080fd5b50565b6000813590506105308161050a565b92915050565b60006020828403121561054c5761054b6104a0565b5b600061055a84828501610521565b91505092915050565b600073ffffffffffffffffffffffffffffffffffffffff82169050919050565b600061058e82610563565b9050919050565b61059e81610583565b82525050565b60006020820190506105b96000830184610595565b92915050565b600082825260208201905092915050565b7f42657420616d6f756e74206d7573742062652067726561746572207468616e2060008201527f3000000000000000000000000000000000000000000000000000000000000000602082015250565b600061062c6021836105bf565b9150610637826105d0565b604082019050919050565b6000602082019050818103600083015261065b8161061f565b9050919050565b7f4e487b7100000000000000000000000000000000000000000000000000000000600052601160045260246000fd5b600061069c8261046c565b91506106a78361046c565b92508282026106b58161046c565b915082820484148315176106cc576106cb610662565b5b5092915050565b7f4e6f7420656e6f7567682062616c616e636520696e20636f6e74726163740000600082015250565b6000610709601e836105bf565b9150610714826106d3565b602082019050919050565b60006020820190508181036000830152610738816106fc565b9050919050565b610748816104a5565b82525050565b60006040820190506107636000830185610476565b610770602083018461073f565b9392505050565b7f4f6e6c7920746865206f776e65722063616e2077697468647261770000000000600082015250565b60006107ad601b836105bf565b91506107b882610777565b602082019050919050565b600060208201905081810360008301526107dc816107a0565b9050919050565b6000819050919050565b6107fe6107f98261046c565b6107e3565b82525050565b600061081082856107ed565b60208201915061082082846107ed565b6020820191508190509392505050565b7f4e487b7100000000000000000000000000000000000000000000000000000000600052601260045260246000fd5b600061086a8261046c565b91506108758361046c565b92508261088557610884610830565b5b82820690509291505056fea264697066735822122030648d5f4545ae5d14558372f8d73357138fc591263bb2cfcab8ef76847af8a464736f6c63430008180033",
  "linkReferences": {},
  "deployedLinkReferences": {}
}